{
    "abi": [
        {
            "type": "constructor",
            "inputs": [],
            "stateMutability": "nonpayable"
        },
        {
            "type": "function",
            "name": "Price",
            "inputs": [],
            "outputs": [
                {
                    "name": "",
                    "type": "uint256",
                    "internalType": "uint256"
                }
            ],
            "stateMutability": "view"
        },
        {
            "type": "function",
            "name": "TotalNum",
            "inputs": [],
            "outputs": [
                {
                    "name": "",
                    "type": "uint256",
                    "internalType": "uint256"
                }
            ],
            "stateMutability": "view"
        },
        {
            "type": "function",
            "name": "addToBlacklist",
            "inputs": [
                {
                    "name": "_address",
                    "type": "address",
                    "internalType": "address"
                }
            ],
            "outputs": [],
            "stateMutability": "nonpayable"
        },
        {
            "type": "function",
            "name": "airdrop",
            "inputs": [
                {
                    "name": "_to",
                    "type": "address",
                    "internalType": "address"
                },
                {
                    "name": "numberOfTokens",
                    "type": "uint256",
                    "internalType": "uint256"
                }
            ],
            "outputs": [],
            "stateMutability": "nonpayable"
        },
        {
            "type": "function",
            "name": "approve",
            "inputs": [
                {
                    "name": "to",
                    "type": "address",
                    "internalType": "address"
                },
                {
                    "name": "tokenId",
                    "type": "uint256",
                    "internalType": "uint256"
                }
            ],
            "outputs": [],
            "stateMutability": "nonpayable"
        },
        {
            "type": "function",
            "name": "balanceOf",
            "inputs": [
                {
                    "name": "owner",
                    "type": "address",
                    "internalType": "address"
                }
            ],
            "outputs": [
                {
                    "name": "",
                    "type": "uint256",
                    "internalType": "uint256"
                }
            ],
            "stateMutability": "view"
        },
        {
            "type": "function",
            "name": "blacklist",
            "inputs": [
                {
                    "name": "",
                    "type": "address",
                    "internalType": "address"
                }
            ],
            "outputs": [
                {
                    "name": "",
                    "type": "bool",
                    "internalType": "bool"
                }
            ],
            "stateMutability": "view"
        },
        {
            "type": "function",
            "name": "getApproved",
            "inputs": [
                {
                    "name": "tokenId",
                    "type": "uint256",
                    "internalType": "uint256"
                }
            ],
            "outputs": [
                {
                    "name": "",
                    "type": "address",
                    "internalType": "address"
                }
            ],
            "stateMutability": "view"
        },
        {
            "type": "function",
            "name": "isApprovedForAll",
            "inputs": [
                {
                    "name": "owner",
                    "type": "address",
                    "internalType": "address"
                },
                {
                    "name": "operator",
                    "type": "address",
                    "internalType": "address"
                }
            ],
            "outputs": [
                {
                    "name": "",
                    "type": "bool",
                    "internalType": "bool"
                }
            ],
            "stateMutability": "view"
        },
        {
            "type": "function",
            "name": "isContract",
            "inputs": [
                {
                    "name": "account",
                    "type": "address",
                    "internalType": "address"
                }
            ],
            "outputs": [
                {
                    "name": "",
                    "type": "bool",
                    "internalType": "bool"
                }
            ],
            "stateMutability": "view"
        },
        {
            "type": "function",
            "name": "listClaimed",
            "inputs": [
                {
                    "name": "",
                    "type": "address",
                    "internalType": "address"
                }
            ],
            "outputs": [
                {
                    "name": "",
                    "type": "bool",
                    "internalType": "bool"
                }
            ],
            "stateMutability": "view"
        },
        {
            "type": "function",
            "name": "mint",
            "inputs": [],
            "outputs": [],
            "stateMutability": "payable"
        },
        {
            "type": "function",
            "name": "name",
            "inputs": [],
            "outputs": [
                {
                    "name": "",
                    "type": "string",
                    "internalType": "string"
                }
            ],
            "stateMutability": "view"
        },
        {
            "type": "function",
            "name": "nextOwnerToExplicitlySet",
            "inputs": [],
            "outputs": [
                {
                    "name": "",
                    "type": "uint256",
                    "internalType": "uint256"
                }
            ],
            "stateMutability": "view"
        },
        {
            "type": "function",
            "name": "owner",
            "inputs": [],
            "outputs": [
                {
                    "name": "",
                    "type": "address",
                    "internalType": "address"
                }
            ],
            "stateMutability": "view"
        },
        {
            "type": "function",
            "name": "ownerOf",
            "inputs": [
                {
                    "name": "tokenId",
                    "type": "uint256",
                    "internalType": "uint256"
                }
            ],
            "outputs": [
                {
                    "name": "",
                    "type": "address",
                    "internalType": "address"
                }
            ],
            "stateMutability": "view"
        },
        {
            "type": "function",
            "name": "publicMintEnabled",
            "inputs": [],
            "outputs": [
                {
                    "name": "",
                    "type": "bool",
                    "internalType": "bool"
                }
            ],
            "stateMutability": "view"
        },
        {
            "type": "function",
            "name": "removeFromBlacklist",
            "inputs": [
                {
                    "name": "_address",
                    "type": "address",
                    "internalType": "address"
                }
            ],
            "outputs": [],
            "stateMutability": "nonpayable"
        },
        {
            "type": "function",
            "name": "renounceOwnership",
            "inputs": [],
            "outputs": [],
            "stateMutability": "nonpayable"
        },
        {
            "type": "function",
            "name": "safeTransferFrom",
            "inputs": [
                {
                    "name": "_from",
                    "type": "address",
                    "internalType": "address"
                },
                {
                    "name": "_to",
                    "type": "address",
                    "internalType": "address"
                },
                {
                    "name": "_tokenId",
                    "type": "uint256",
                    "internalType": "uint256"
                }
            ],
            "outputs": [],
            "stateMutability": "nonpayable"
        },
        {
            "type": "function",
            "name": "safeTransferFrom",
            "inputs": [
                {
                    "name": "_from",
                    "type": "address",
                    "internalType": "address"
                },
                {
                    "name": "_to",
                    "type": "address",
                    "internalType": "address"
                },
                {
                    "name": "_tokenId",
                    "type": "uint256",
                    "internalType": "uint256"
                },
                {
                    "name": "_data",
                    "type": "bytes",
                    "internalType": "bytes"
                }
            ],
            "outputs": [],
            "stateMutability": "nonpayable"
        },
        {
            "type": "function",
            "name": "setApprovalForAll",
            "inputs": [
                {
                    "name": "operator",
                    "type": "address",
                    "internalType": "address"
                },
                {
                    "name": "approved",
                    "type": "bool",
                    "internalType": "bool"
                }
            ],
            "outputs": [],
            "stateMutability": "nonpayable"
        },
        {
            "type": "function",
            "name": "setBaseURI",
            "inputs": [
                {
                    "name": "baseURI_",
                    "type": "string",
                    "internalType": "string"
                }
            ],
            "outputs": [],
            "stateMutability": "nonpayable"
        },
        {
            "type": "function",
            "name": "setPrice",
            "inputs": [
                {
                    "name": "newPrice",
                    "type": "uint256",
                    "internalType": "uint256"
                }
            ],
            "outputs": [],
            "stateMutability": "nonpayable"
        },
        {
            "type": "function",
            "name": "setPublicMint",
            "inputs": [
                {
                    "name": "enable",
                    "type": "bool",
                    "internalType": "bool"
                }
            ],
            "outputs": [],
            "stateMutability": "nonpayable"
        },
        {
            "type": "function",
            "name": "setRoot",
            "inputs": [
                {
                    "name": "mroot",
                    "type": "bytes32",
                    "internalType": "bytes32"
                },
                {
                    "name": "step",
                    "type": "uint256",
                    "internalType": "uint256"
                }
            ],
            "outputs": [],
            "stateMutability": "nonpayable"
        },
        {
            "type": "function",
            "name": "setWlMint",
            "inputs": [
                {
                    "name": "enable",
                    "type": "bool",
                    "internalType": "bool"
                },
                {
                    "name": "step",
                    "type": "uint256",
                    "internalType": "uint256"
                }
            ],
            "outputs": [],
            "stateMutability": "nonpayable"
        },
        {
            "type": "function",
            "name": "supportsInterface",
            "inputs": [
                {
                    "name": "interfaceId",
                    "type": "bytes4",
                    "internalType": "bytes4"
                }
            ],
            "outputs": [
                {
                    "name": "",
                    "type": "bool",
                    "internalType": "bool"
                }
            ],
            "stateMutability": "view"
        },
        {
            "type": "function",
            "name": "symbol",
            "inputs": [],
            "outputs": [
                {
                    "name": "",
                    "type": "string",
                    "internalType": "string"
                }
            ],
            "stateMutability": "view"
        },
        {
            "type": "function",
            "name": "tokenByIndex",
            "inputs": [
                {
                    "name": "index",
                    "type": "uint256",
                    "internalType": "uint256"
                }
            ],
            "outputs": [
                {
                    "name": "",
                    "type": "uint256",
                    "internalType": "uint256"
                }
            ],
            "stateMutability": "view"
        },
        {
            "type": "function",
            "name": "tokenOfOwnerByIndex",
            "inputs": [
                {
                    "name": "owner",
                    "type": "address",
                    "internalType": "address"
                },
                {
                    "name": "index",
                    "type": "uint256",
                    "internalType": "uint256"
                }
            ],
            "outputs": [
                {
                    "name": "",
                    "type": "uint256",
                    "internalType": "uint256"
                }
            ],
            "stateMutability": "view"
        },
        {
            "type": "function",
            "name": "tokenURI",
            "inputs": [
                {
                    "name": "_tokenId",
                    "type": "uint256",
                    "internalType": "uint256"
                }
            ],
            "outputs": [
                {
                    "name": "",
                    "type": "string",
                    "internalType": "string"
                }
            ],
            "stateMutability": "view"
        },
        {
            "type": "function",
            "name": "totalSupply",
            "inputs": [],
            "outputs": [
                {
                    "name": "",
                    "type": "uint256",
                    "internalType": "uint256"
                }
            ],
            "stateMutability": "view"
        },
        {
            "type": "function",
            "name": "transferFrom",
            "inputs": [
                {
                    "name": "_from",
                    "type": "address",
                    "internalType": "address"
                },
                {
                    "name": "_to",
                    "type": "address",
                    "internalType": "address"
                },
                {
                    "name": "_tokenId",
                    "type": "uint256",
                    "internalType": "uint256"
                }
            ],
            "outputs": [],
            "stateMutability": "nonpayable"
        },
        {
            "type": "function",
            "name": "transferOwnership",
            "inputs": [
                {
                    "name": "newOwner",
                    "type": "address",
                    "internalType": "address"
                }
            ],
            "outputs": [],
            "stateMutability": "nonpayable"
        },
        {
            "type": "function",
            "name": "withdraw",
            "inputs": [],
            "outputs": [],
            "stateMutability": "nonpayable"
        },
        {
            "type": "function",
            "name": "wlMintStep1Enabled",
            "inputs": [],
            "outputs": [
                {
                    "name": "",
                    "type": "bool",
                    "internalType": "bool"
                }
            ],
            "stateMutability": "view"
        },
        {
            "type": "function",
            "name": "wlMintStep2Enabled",
            "inputs": [],
            "outputs": [
                {
                    "name": "",
                    "type": "bool",
                    "internalType": "bool"
                }
            ],
            "stateMutability": "view"
        },
        {
            "type": "function",
            "name": "wlmint1",
            "inputs": [
                {
                    "name": "proof",
                    "type": "bytes32[]",
                    "internalType": "bytes32[]"
                }
            ],
            "outputs": [],
            "stateMutability": "payable"
        },
        {
            "type": "function",
            "name": "wlmint2",
            "inputs": [
                {
                    "name": "proof",
                    "type": "bytes32[]",
                    "internalType": "bytes32[]"
                }
            ],
            "outputs": [],
            "stateMutability": "payable"
        },
        {
            "type": "function",
            "name": "wlroot1",
            "inputs": [],
            "outputs": [
                {
                    "name": "",
                    "type": "bytes32",
                    "internalType": "bytes32"
                }
            ],
            "stateMutability": "view"
        },
        {
            "type": "function",
            "name": "wlroot2",
            "inputs": [],
            "outputs": [
                {
                    "name": "",
                    "type": "bytes32",
                    "internalType": "bytes32"
                }
            ],
            "stateMutability": "view"
        },
        {
            "type": "event",
            "name": "Approval",
            "inputs": [
                {
                    "name": "owner",
                    "type": "address",
                    "indexed": true,
                    "internalType": "address"
                },
                {
                    "name": "approved",
                    "type": "address",
                    "indexed": true,
                    "internalType": "address"
                },
                {
                    "name": "tokenId",
                    "type": "uint256",
                    "indexed": true,
                    "internalType": "uint256"
                }
            ],
            "anonymous": false
        },
        {
            "type": "event",
            "name": "ApprovalForAll",
            "inputs": [
                {
                    "name": "owner",
                    "type": "address",
                    "indexed": true,
                    "internalType": "address"
                },
                {
                    "name": "operator",
                    "type": "address",
                    "indexed": true,
                    "internalType": "address"
                },
                {
                    "name": "approved",
                    "type": "bool",
                    "indexed": false,
                    "internalType": "bool"
                }
            ],
            "anonymous": false
        },
        {
            "type": "event",
            "name": "OwnershipTransferred",
            "inputs": [
                {
                    "name": "previousOwner",
                    "type": "address",
                    "indexed": true,
                    "internalType": "address"
                },
                {
                    "name": "newOwner",
                    "type": "address",
                    "indexed": true,
                    "internalType": "address"
                }
            ],
            "anonymous": false
        },
        {
            "type": "event",
            "name": "Transfer",
            "inputs": [
                {
                    "name": "from",
                    "type": "address",
                    "indexed": true,
                    "internalType": "address"
                },
                {
                    "name": "to",
                    "type": "address",
                    "indexed": true,
                    "internalType": "address"
                },
                {
                    "name": "tokenId",
                    "type": "uint256",
                    "indexed": true,
                    "internalType": "uint256"
                }
            ],
            "anonymous": false
        },
        {
            "type": "error",
            "name": "OwnableInvalidOwner",
            "inputs": [
                {
                    "name": "owner",
                    "type": "address",
                    "internalType": "address"
                }
            ]
        },
        {
            "type": "error",
            "name": "OwnableUnauthorizedAccount",
            "inputs": [
                {
                    "name": "account",
                    "type": "address",
                    "internalType": "address"
                }
            ]
        }
    ],
    "bytecode": {
        "object": "0x600160009081556007556008805462ffffff60a01b19169055670de0b6b3a76400006009556101f4600a55610100604052603660a081815290612bc360c039600b9061004b90826101ed565b506000600c556000600d5534801561006257600080fd5b5060408051808201825260058082526413dc989a5d60da1b602080840182905284518086019095529184529083015233916101f46100a4565b60405180910390fd5b60016100b084826101ed565b5060026100bd83826101ed565b5060805250506001600160a01b0381166100ed57604051631e4fbdf760e01b81526000600482015260240161009b565b6100f6816100fc565b506102ab565b600880546001600160a01b038381166001600160a01b0319831681179093556040519116919082907f8be0079c531659141344cd1fd0a4f28419497f9722a3daafe3b4186f6b6457e090600090a35050565b634e487b7160e01b600052604160045260246000fd5b600181811c9082168061017857607f821691505b60208210810361019857634e487b7160e01b600052602260045260246000fd5b50919050565b601f8211156101e857806000526020600020601f840160051c810160208510156101c55750805b601f840160051c820191505b818110156101e557600081556001016101d1565b50505b505050565b81516001600160401b038111156102065761020661014e565b61021a816102148454610164565b8461019e565b6020601f82116001811461024e57600083156102365750848201515b600019600385901b1c1916600184901b1784556101e5565b600084815260208120601f198516915b8281101561027e578785015182556020948501946001909201910161025e565b508482101561029c5786840151600019600387901b60f8161c191681555b50505050600190811b01905550565b6080516128ef6102d4600039600081816115be015281816115e801526118e901526128ef6000f3fe6080604052600436106102515760003560e01c8063715018a611610139578063b88d4fde116100b6578063d7224ba01161007a578063d7224ba01461068d578063e2b9e128146106a3578063e985e9c5146106d3578063edbe2a211461071c578063f2fde38b1461073c578063f9f92be41461075c57600080fd5b8063b88d4fde14610603578063c36b2a3c14610623578063c62dd15c14610644578063c87b56dd1461065a578063d3dd752f1461067a57600080fd5b806395d89b41116100fd57806395d89b411461058c5780639dfde201146105a1578063a22cb465146105b7578063b2d5fb47146105d7578063b6b7d944146105ed57600080fd5b8063715018a6146105065780637b57422f1461051b5780638ba4cc3c1461052e5780638da5cb5b1461054e57806391b7f5ed1461056c57600080fd5b80632f745c59116101d2578063537df3b611610196578063537df3b61461044557806355f804b314610465578063612c941b146104855780636352211e146104a55780636c7b0419146104c557806370a08231146104e657600080fd5b80632f745c59146103b05780633ccfd60b146103d057806342842e0e146103e557806344337ea1146104055780634f6ccce71461042557600080fd5b80630f4161aa116102195780630f4161aa146103275780631249c58b14610348578063162790551461035057806318160ddd1461037157806323b872dd1461039057600080fd5b806301ffc9a71461025657806306fdde031461028b578063081812fc146102ad578063095ea7b3146102e55780630e2d56cf14610307575b600080fd5b34801561026257600080fd5b5061027661027136600461212a565b61078c565b60405190151581526020015b60405180910390f35b34801561029757600080fd5b506102a06107f9565b6040516102829190612197565b3480156102b957600080fd5b506102cd6102c83660046121aa565b61088b565b6040516001600160a01b039091168152602001610282565b3480156102f157600080fd5b506103056103003660046121df565b61091b565b005b34801561031357600080fd5b50610305610322366004612219565b610a32565b34801561033357600080fd5b5060085461027690600160a01b900460ff1681565b610305610a58565b34801561035c57600080fd5b5061027661036b366004612234565b3b151590565b34801561037d57600080fd5b506000545b604051908152602001610282565b34801561039c57600080fd5b506103056103ab36600461224f565b610ad1565b3480156103bc57600080fd5b506103826103cb3660046121df565b610b15565b3480156103dc57600080fd5b50610305610c76565b3480156103f157600080fd5b5061030561040036600461224f565b610d3f565b34801561041157600080fd5b50610305610420366004612234565b610d93565b34801561043157600080fd5b506103826104403660046121aa565b610dbf565b34801561045157600080fd5b50610305610460366004612234565b610e21565b34801561047157600080fd5b5061030561048036600461231a565b610e4a565b34801561049157600080fd5b506103056104a0366004612362565b610e62565b3480156104b157600080fd5b506102cd6104c03660046121aa565b610eb4565b3480156104d157600080fd5b5060085461027690600160a81b900460ff1681565b3480156104f257600080fd5b50610382610501366004612234565b610ec6565b34801561051257600080fd5b50610305610f57565b61030561052936600461237e565b610f69565b34801561053a57600080fd5b506103056105493660046121df565b61112b565b34801561055a57600080fd5b506008546001600160a01b03166102cd565b34801561057857600080fd5b506103056105873660046121aa565b611172565b34801561059857600080fd5b506102a061117f565b3480156105ad57600080fd5b5061038260095481565b3480156105c357600080fd5b506103056105d23660046123f3565b61118e565b3480156105e357600080fd5b50610382600c5481565b3480156105f957600080fd5b50610382600a5481565b34801561060f57600080fd5b5061030561061e366004612426565b611252565b34801561062f57600080fd5b5060085461027690600160b01b900460ff1681565b34801561065057600080fd5b50610382600d5481565b34801561066657600080fd5b506102a06106753660046121aa565b61129d565b61030561068836600461237e565b6112dd565b34801561069957600080fd5b5061038260075481565b3480156106af57600080fd5b506102766106be366004612234565b600e6020526000908152604090205460ff1681565b3480156106df57600080fd5b506102766106ee3660046124a1565b6001600160a01b03918216600090815260066020908152604080832093909416825291909152205460ff1690565b34801561072857600080fd5b506103056107373660046124cb565b6113fc565b34801561074857600080fd5b50610305610757366004612234565b611420565b34801561076857600080fd5b50610276610777366004612234565b600f6020526000908152604090205460ff1681565b60006001600160e01b031982166380ac58cd60e01b14806107bd57506001600160e01b03198216635b5e139f60e01b145b806107d857506001600160e01b0319821663780e9d6360e01b145b806107f357506301ffc9a760e01b6001600160e01b03198316145b92915050565b606060018054610808906124ed565b80601f0160208091040260200160405190810160405280929190818152602001828054610834906124ed565b80156108815780601f1061085657610100808354040283529160200191610881565b820191906000526020600020905b81548152906001019060200180831161086457829003601f168201915b5050505050905090565b6000610898826000541190565b6108ff5760405162461bcd60e51b815260206004820152602d60248201527f455243373231413a20617070726f76656420717565727920666f72206e6f6e6560448201526c3c34b9ba32b73a103a37b5b2b760991b60648201526084015b60405180910390fd5b506000908152600560205260409020546001600160a01b031690565b600061092682610eb4565b9050806001600160a01b0316836001600160a01b0316036109945760405162461bcd60e51b815260206004820152602260248201527f455243373231413a20617070726f76616c20746f2063757272656e74206f776e60448201526132b960f11b60648201526084016108f6565b336001600160a01b03821614806109b057506109b081336106ee565b610a225760405162461bcd60e51b815260206004820152603960248201527f455243373231413a20617070726f76652063616c6c6572206973206e6f74206f60448201527f776e6572206e6f7220617070726f76656420666f7220616c6c0000000000000060648201526084016108f6565b610a2d83838361145b565b505050565b610a3a6114b7565b60088054911515600160a01b0260ff60a01b19909216919091179055565b323314610a775760405162461bcd60e51b81526004016108f690612527565b600854600160a01b900460ff16610aa05760405162461bcd60e51b81526004016108f69061255e565b600a546000541115610ac45760405162461bcd60e51b81526004016108f6906125a0565b610acf3360016114e4565b565b6001600160a01b0383166000908152600f602052604090205460ff1615610b0a5760405162461bcd60e51b81526004016108f6906125ca565b610a2d8383836114fe565b6000610b2083610ec6565b8210610b795760405162461bcd60e51b815260206004820152602260248201527f455243373231413a206f776e657220696e646578206f7574206f6620626f756e604482015261647360f01b60648201526084016108f6565b600080549080805b83811015610c16576000818152600360209081526040918290208251808401909352546001600160a01b038116808452600160a01b9091046001600160401b03169183019190915215610bd357805192505b876001600160a01b0316836001600160a01b031603610c0d57868403610bff575093506107f392505050565b83610c0981612617565b9450505b50600101610b81565b5060405162461bcd60e51b815260206004820152602e60248201527f455243373231413a20756e61626c6520746f2067657420746f6b656e206f662060448201526d0deeedccae440c4f240d2dcc8caf60931b60648201526084016108f6565b610c7e6114b7565b604051600090339047908381818185875af1925050503d8060008114610cc0576040519150601f19603f3d011682016040523d82523d6000602084013e610cc5565b606091505b5050905080610d3c5760405162461bcd60e51b815260206004820152603a60248201527f416464726573733a20756e61626c6520746f2073656e642076616c75652c207260448201527f6563697069656e74206d6179206861766520726576657274656400000000000060648201526084016108f6565b50565b6001600160a01b0383166000908152600f602052604090205460ff1615610d785760405162461bcd60e51b81526004016108f6906125ca565b610a2d83838360405180602001604052806000815250611509565b610d9b6114b7565b6001600160a01b03166000908152600f60205260409020805460ff19166001179055565b600080548210610e1d5760405162461bcd60e51b815260206004820152602360248201527f455243373231413a20676c6f62616c20696e646578206f7574206f6620626f756044820152626e647360e81b60648201526084016108f6565b5090565b610e296114b7565b6001600160a01b03166000908152600f60205260409020805460ff19169055565b610e526114b7565b600b610e5e828261267e565b5050565b610e6a6114b7565b80600103610e8f5760088054831515600160a81b0260ff60a81b199091161790555050565b80600203610e5e5760088054831515600160b01b0260ff60b01b199091161790555050565b6000610ebf8261153c565b5192915050565b60006001600160a01b038216610f325760405162461bcd60e51b815260206004820152602b60248201527f455243373231413a2062616c616e636520717565727920666f7220746865207a60448201526a65726f206164647265737360a81b60648201526084016108f6565b506001600160a01b03166000908152600460205260409020546001600160801b031690565b610f5f6114b7565b610acf60006116e5565b323314610f885760405162461bcd60e51b81526004016108f690612527565b600854600160b01b900460ff16610fb15760405162461bcd60e51b81526004016108f69061255e565b3460095411156110035760405162461bcd60e51b815260206004820152601a60248201527f446f6e27742073656e6420756e6465722028696e20455448292e00000000000060448201526064016108f6565b600a5460005411156110275760405162461bcd60e51b81526004016108f6906125a0565b336000908152600e602052604090205460ff16156110795760405162461bcd60e51b815260206004820152600f60248201526e416c7265616479206d696e7465642160881b60448201526064016108f6565b6110c1600d5461108833611737565b84848080602002602001604051908101604052809392919081815260200183836020028082843760009201919091525061177692505050565b6111045760405162461bcd60e51b815260206004820152601460248201527324b73b30b634b21036b2b935b63290383937b7b360611b60448201526064016108f6565b336000818152600e60205260409020805460ff19166001908117909155610e5e91906114e4565b6111336114b7565b600a548161114060005490565b61114a919061273c565b11156111685760405162461bcd60e51b81526004016108f6906125a0565b610e5e82826114e4565b61117a6114b7565b600955565b606060028054610808906124ed565b336001600160a01b038316036111e65760405162461bcd60e51b815260206004820152601a60248201527f455243373231413a20617070726f766520746f2063616c6c657200000000000060448201526064016108f6565b3360008181526006602090815260408083206001600160a01b03871680855290835292819020805460ff191686151590811790915590519081529192917f17307eab39ab6107e8899845ad3d59bd9653f200f220920489ca2b5937696c31910160405180910390a35050565b6001600160a01b0384166000908152600f602052604090205460ff161561128b5760405162461bcd60e51b81526004016108f6906125ca565b61129784848484611509565b50505050565b606060006112a961178b565b9050806112b58461179a565b6040516020016112c692919061274f565b604051602081830303815290604052915050919050565b3233146112fc5760405162461bcd60e51b81526004016108f690612527565b600854600160a81b900460ff166113255760405162461bcd60e51b81526004016108f69061255e565b3460095411156113775760405162461bcd60e51b815260206004820152601a60248201527f446f6e27742073656e6420756e6465722028696e20455448292e00000000000060448201526064016108f6565b600a54600054111561139b5760405162461bcd60e51b81526004016108f6906125a0565b336000908152600e602052604090205460ff16156113ed5760405162461bcd60e51b815260206004820152600f60248201526e416c7265616479206d696e7465642160881b60448201526064016108f6565b6110c1600c5461108833611737565b6114046114b7565b8060010361141257600c8290555b80600203610e5e5750600d55565b6114286114b7565b6001600160a01b03811661145257604051631e4fbdf760e01b8152600060048201526024016108f6565b610d3c816116e5565b60008281526005602052604080822080546001600160a01b0319166001600160a01b0387811691821790925591518593918516917f8c5be1e5ebec7d5bd14f71427d1e84f3dd0314c0f7b2291e5b200ac8c7c3b92591a4505050565b6008546001600160a01b03163314610acf5760405163118cdaa760e01b81523360048201526024016108f6565b610e5e82826040518060200160405280600081525061182c565b610a2d838383611aff565b611514848484611aff565b61152084848484611e81565b6112975760405162461bcd60e51b81526004016108f69061278e565b604080518082019091526000808252602082015261155b826000541190565b6115ba5760405162461bcd60e51b815260206004820152602a60248201527f455243373231413a206f776e657220717565727920666f72206e6f6e657869736044820152693a32b73a103a37b5b2b760b11b60648201526084016108f6565b60007f0000000000000000000000000000000000000000000000000000000000000000831061161b5761160d7f0000000000000000000000000000000000000000000000000000000000000000846127e1565b61161890600161273c565b90505b825b818110611684576000818152600360209081526040918290208251808401909352546001600160a01b038116808452600160a01b9091046001600160401b0316918301919091521561167157949350505050565b508061167c816127f4565b91505061161d565b5060405162461bcd60e51b815260206004820152602f60248201527f455243373231413a20756e61626c6520746f2064657465726d696e652074686560448201526e1037bbb732b91037b3103a37b5b2b760891b60648201526084016108f6565b600880546001600160a01b038381166001600160a01b0319831681179093556040519116919082907f8be0079c531659141344cd1fd0a4f28419497f9722a3daafe3b4186f6b6457e090600090a35050565b6040516bffffffffffffffffffffffff19606083901b166020820152600090603401604051602081830303815290604052805190602001209050919050565b6000611783828585611f79565b949350505050565b6060600b8054610808906124ed565b606060006117a783611f8f565b60010190506000816001600160401b038111156117c6576117c661228c565b6040519080825280601f01601f1916602001820160405280156117f0576020820181803683370190505b5090508181016020015b600019016f181899199a1a9b1b9c1cb0b131b232b360811b600a86061a8153600a85049450846117fa57509392505050565b6000546001600160a01b03841661188f5760405162461bcd60e51b815260206004820152602160248201527f455243373231413a206d696e7420746f20746865207a65726f206164647265736044820152607360f81b60648201526084016108f6565b61189a816000541190565b156118e75760405162461bcd60e51b815260206004820152601d60248201527f455243373231413a20746f6b656e20616c7265616479206d696e74656400000060448201526064016108f6565b7f00000000000000000000000000000000000000000000000000000000000000008311156119625760405162461bcd60e51b815260206004820152602260248201527f455243373231413a207175616e7469747920746f206d696e7420746f6f2068696044820152610ced60f31b60648201526084016108f6565b6001600160a01b0384166000908152600460209081526040918290208251808401845290546001600160801b038082168352600160801b90910416918101919091528151808301909252805190919081906119be90879061280b565b6001600160801b031681526020018583602001516119dc919061280b565b6001600160801b039081169091526001600160a01b0380881660008181526004602090815260408083208751978301518716600160801b029790961696909617909455845180860186529182526001600160401b034281168386019081528883526003909552948120915182549451909516600160a01b026001600160e01b031990941694909216939093179190911790915582905b85811015611af05760405182906001600160a01b038916906000907fddf252ad1be2c89b69c2b068fc378daa952ba7f163c4a11628f55a4df523b3ef908290a4611abf6000888488611e81565b611adb5760405162461bcd60e51b81526004016108f69061278e565b81611ae581612617565b925050600101611a72565b5060008190555b505050505050565b6000611b0a8261153c565b80519091506000906001600160a01b0316336001600160a01b03161480611b41575033611b368461088b565b6001600160a01b0316145b80611b5357508151611b5390336106ee565b905080611bbd5760405162461bcd60e51b815260206004820152603260248201527f455243373231413a207472616e736665722063616c6c6572206973206e6f74206044820152711bdddb995c881b9bdc88185c1c1c9bdd995960721b60648201526084016108f6565b846001600160a01b031682600001516001600160a01b031614611c315760405162461bcd60e51b815260206004820152602660248201527f455243373231413a207472616e736665722066726f6d20696e636f72726563746044820152651037bbb732b960d11b60648201526084016108f6565b6001600160a01b038416611c955760405162461bcd60e51b815260206004820152602560248201527f455243373231413a207472616e7366657220746f20746865207a65726f206164604482015264647265737360d81b60648201526084016108f6565b611ca5600084846000015161145b565b6001600160a01b0385166000908152600460205260408120805460019290611cd79084906001600160801b031661282a565b82546101009290920a6001600160801b038181021990931691831602179091556001600160a01b03861660009081526004602052604081208054600194509092611d239185911661280b565b82546001600160801b039182166101009390930a9283029190920219909116179055506040805180820182526001600160a01b0380871682526001600160401b03428116602080850191825260008981526003909152948520935184549151909216600160a01b026001600160e01b03199091169190921617179055611daa84600161273c565b6000818152600360205260409020549091506001600160a01b0316611e3b57611dd4816000541190565b15611e3b5760408051808201825284516001600160a01b0390811682526020808701516001600160401b039081168285019081526000878152600390935294909120925183549451909116600160a01b026001600160e01b03199094169116179190911790555b83856001600160a01b0316876001600160a01b03167fddf252ad1be2c89b69c2b068fc378daa952ba7f163c4a11628f55a4df523b3ef60405160405180910390a4611af7565b6000833b15611f6e57604051630a85bd0160e11b81526001600160a01b0385169063150b7a0290611ebc903390899088908890600401612849565b6020604051808303816000875af1925050508015611ef7575060408051601f3d908101601f19168201909252611ef491810190612886565b60015b611f54573d808015611f25576040519150601f19603f3d011682016040523d82523d6000602084013e611f2a565b606091505b508051600003611f4c5760405162461bcd60e51b81526004016108f69061278e565b805181602001fd5b6001600160e01b031916630a85bd0160e11b149050611783565b506001949350505050565b600082611f868584612067565b14949350505050565b60008072184f03e93ff9f4daa797ed6e38ed64bf6a1f0160401b8310611fce5772184f03e93ff9f4daa797ed6e38ed64bf6a1f0160401b830492506040015b6d04ee2d6d415b85acef81000000008310611ffa576d04ee2d6d415b85acef8100000000830492506020015b662386f26fc10000831061201857662386f26fc10000830492506010015b6305f5e1008310612030576305f5e100830492506008015b612710831061204457612710830492506004015b60648310612056576064830492506002015b600a83106107f35760010192915050565b600081815b84518110156120a2576120988286838151811061208b5761208b6128a3565b60200260200101516120aa565b915060010161206c565b509392505050565b60008183106120e25760408051602081018490529081018490526060016040516020818303038152906040528051906020012061210d565b6040805160208101859052908101839052606001604051602081830303815290604052805190602001205b9392505050565b6001600160e01b031981168114610d3c57600080fd5b60006020828403121561213c57600080fd5b813561210d81612114565b60005b8381101561216257818101518382015260200161214a565b50506000910152565b60008151808452612183816020860160208601612147565b601f01601f19169290920160200192915050565b60208152600061210d602083018461216b565b6000602082840312156121bc57600080fd5b5035919050565b80356001600160a01b03811681146121da57600080fd5b919050565b600080604083850312156121f257600080fd5b6121fb836121c3565b946020939093013593505050565b803580151581146121da57600080fd5b60006020828403121561222b57600080fd5b61210d82612209565b60006020828403121561224657600080fd5b61210d826121c3565b60008060006060848603121561226457600080fd5b61226d846121c3565b925061227b602085016121c3565b929592945050506040919091013590565b634e487b7160e01b600052604160045260246000fd5b6000806001600160401b038411156122bc576122bc61228c565b50604051601f19601f85018116603f011681018181106001600160401b03821117156122ea576122ea61228c565b60405283815290508082840185101561230257600080fd5b83836020830137600060208583010152509392505050565b60006020828403121561232c57600080fd5b81356001600160401b0381111561234257600080fd5b8201601f8101841361235357600080fd5b611783848235602084016122a2565b6000806040838503121561237557600080fd5b6121fb83612209565b6000806020838503121561239157600080fd5b82356001600160401b038111156123a757600080fd5b8301601f810185136123b857600080fd5b80356001600160401b038111156123ce57600080fd5b8560208260051b84010111156123e357600080fd5b6020919091019590945092505050565b6000806040838503121561240657600080fd5b61240f836121c3565b915061241d60208401612209565b90509250929050565b6000806000806080858703121561243c57600080fd5b612445856121c3565b9350612453602086016121c3565b92506040850135915060608501356001600160401b0381111561247557600080fd5b8501601f8101871361248657600080fd5b612495878235602084016122a2565b91505092959194509250565b600080604083850312156124b457600080fd5b6124bd836121c3565b915061241d602084016121c3565b600080604083850312156124de57600080fd5b50508035926020909101359150565b600181811c9082168061250157607f821691505b60208210810361252157634e487b7160e01b600052602260045260246000fd5b50919050565b6020808252601f908201527f5468652063616c6c657220697320616e6f7468657220636f6e74726163742100604082015260600190565b60208082526022908201527f5468652077686974656c6973742073616c65206973206e6f7420656e61626c65604082015261642160f01b606082015260800190565b60208082526010908201526f185b1c9958591e481b5a5b9d081bdd5d60821b604082015260600190565b6020808252601d908201527f526563697069656e74206973206f6e2074686520626c61636b6c697374000000604082015260600190565b634e487b7160e01b600052601160045260246000fd5b60006001820161262957612629612601565b5060010190565b601f821115610a2d57806000526020600020601f840160051c810160208510156126575750805b601f840160051c820191505b818110156126775760008155600101612663565b5050505050565b81516001600160401b038111156126975761269761228c565b6126ab816126a584546124ed565b84612630565b6020601f8211600181146126df57600083156126c75750848201515b600019600385901b1c1916600184901b178455612677565b600084815260208120601f198516915b8281101561270f57878501518255602094850194600190920191016126ef565b508482101561272d5786840151600019600387901b60f8161c191681555b50505050600190811b01905550565b808201808211156107f3576107f3612601565b60008351612761818460208801612147565b835190830190612775818360208801612147565b64173539b7b760d91b9101908152600501949350505050565b60208082526033908201527f455243373231413a207472616e7366657220746f206e6f6e204552433732315260408201527232b1b2b4bb32b91034b6b83632b6b2b73a32b960691b606082015260800190565b818103818111156107f3576107f3612601565b60008161280357612803612601565b506000190190565b6001600160801b0381811683821601908111156107f3576107f3612601565b6001600160801b0382811682821603908111156107f3576107f3612601565b6001600160a01b038581168252841660208201526040810183905260806060820181905260009061287c9083018461216b565b9695505050505050565b60006020828403121561289857600080fd5b815161210d81612114565b634e487b7160e01b600052603260045260246000fdfea264697066735822122050f0441b3bb4bfbc9b299b4416a21a68ee6582231a4b6d7f7a91fe048b13859164736f6c634300081a0033697066733a2f2f516d6270354c6b6846546a56787865646557684355583576763861394273685a767535514c7058446d4b436367672f",
        "linkReferences": {}
    },
    "methodIdentifiers": {
        "Price()": "9dfde201",
        "TotalNum()": "b6b7d944",
        "addToBlacklist(address)": "44337ea1",
        "airdrop(address,uint256)": "8ba4cc3c",
        "approve(address,uint256)": "095ea7b3",
        "balanceOf(address)": "70a08231",
        "blacklist(address)": "f9f92be4",
        "getApproved(uint256)": "081812fc",
        "isApprovedForAll(address,address)": "e985e9c5",
        "isContract(address)": "16279055",
        "listClaimed(address)": "e2b9e128",
        "mint()": "1249c58b",
        "name()": "06fdde03",
        "nextOwnerToExplicitlySet()": "d7224ba0",
        "owner()": "8da5cb5b",
        "ownerOf(uint256)": "6352211e",
        "publicMintEnabled()": "0f4161aa",
        "removeFromBlacklist(address)": "537df3b6",
        "renounceOwnership()": "715018a6",
        "safeTransferFrom(address,address,uint256)": "42842e0e",
        "safeTransferFrom(address,address,uint256,bytes)": "b88d4fde",
        "setApprovalForAll(address,bool)": "a22cb465",
        "setBaseURI(string)": "55f804b3",
        "setPrice(uint256)": "91b7f5ed",
        "setPublicMint(bool)": "0e2d56cf",
        "setRoot(bytes32,uint256)": "edbe2a21",
        "setWlMint(bool,uint256)": "612c941b",
        "supportsInterface(bytes4)": "01ffc9a7",
        "symbol()": "95d89b41",
        "tokenByIndex(uint256)": "4f6ccce7",
        "tokenOfOwnerByIndex(address,uint256)": "2f745c59",
        "tokenURI(uint256)": "c87b56dd",
        "totalSupply()": "18160ddd",
        "transferFrom(address,address,uint256)": "23b872dd",
        "transferOwnership(address)": "f2fde38b",
        "withdraw()": "3ccfd60b",
        "wlMintStep1Enabled()": "6c7b0419",
        "wlMintStep2Enabled()": "c36b2a3c",
        "wlmint1(bytes32[])": "d3dd752f",
        "wlmint2(bytes32[])": "7b57422f",
        "wlroot1()": "b2d5fb47",
        "wlroot2()": "c62dd15c"
    },
    "id": 0
}